:100000000C9446000C9465000C9465000C946500FB
:100010000C9465000C9465000C9465000C946500CC
:100020000C9465000C9465000C9465000C946500BC
:100030000C9465000C940F010C9465000C94650001
:100040000C9465000C9465000C9465000C9465009C
:100050000C9465000C9465000C9465000C9465008C
:100060000C9465000C9465000C9465000C9465007C
:100070000C9465000C9465000C9465000C9465006C
:100080000C9465000C9465000C94650011241FBE4F
:10009000CFEFD0E4DEBFCDBF11E0A0E0B1E0E0E003
:1000A000F5E000E00BBF02C007900D92AC30B10745
:1000B000D9F711E0ACE0B1E001C01D92A034B10766
:1000C000E1F70E948B010C947E020C9400009C01CD
:1000D00090B1909591702130310571F02230310549
:1000E00029F0232B31F481E090E008C0892F90E0C3
:1000F00005C080E090E002C082E090E08130910590
:1001000039F421E030910C01311120E020930C01F1
:100110000895009719F0019741F00EC081E0909189
:100120000C01911180E090E009C081E090910C01F8
:10013000911180E090E002C080E090E08130910574
:1001400039F421E030910E01311120E020930E01AD
:100150000895009719F0019741F00EC081E0909149
:100160000C01911180E090E009C081E090910C01B8
:10017000911180E090E002C080E090E08130910534
:1001800039F421E030910D01311120E020930D016F
:10019000089580910D01880F90910E01892B85B9EA
:1001A00080E090E0089560930001709301018093D6
:1001B00002019093030160930F01709310018093EB
:1001C00011019093120108958BE0809381008DE7D7
:1001D00090E0909389008093880082E080936F0084
:1001E000109285001092840080910001909101018D
:1001F000A0910201B091030180930F01909310012F
:10020000A0931101B09312018FB780688FBF08953A
:1002100010928100089581E08093130108951F9248
:100220000F920FB60F9211240BB60F922F933F939C
:100230004F935F936F937F938F939F93AF93BF93EE
:10024000EF93FF9380910F0190911001A091110104
:10025000B09112010197A109B10980930F01909308
:100260001001A0931101B0931201892B8A2B8B2BC3
:1002700091F40E940B018091000190910101A091E5
:100280000201B091030180930F0190931001A0939C
:100290001101B0931201FF91EF91BF91AF919F9126
:1002A0008F917F916F915F914F913F912F910F901F
:1002B0000BBE0F900FBE0F901F9018950F931F93BA
:1002C000CF93DF93B62FA72FF82FE92F022F132FED
:1002D000D42FC52F04C0062F172FD82FC92F6B2F4F
:1002E0007A2F8F2F9E2F202F312F4D2F5C2F0E9482
:1002F0005C02B02FA12FFD2FEC2F61157105810538
:10030000910549F7602F712F8D2F9C2FDF91CF9191
:100310001F910F910895CF93DF93CDB7DEB7289744
:100320000FB6F894DEBF0FBECDBF11B88FEF82B904
:1003300084B915B888E0E4E0F1E0DE01119601909F
:100340000D928A95E1F7E981FA8181809280A380FC
:10035000B48001E010E014C0F801EE0FFF1FEC0FB5
:10036000FD1F0180F281E02D218132814381548182
:10037000C501B4010E945E014B015C010F5F1F4F7C
:100380000430110548F3E5E3F1E0108282E390E0E8
:10039000A0E0B0E081839283A383B48385839683B6
:1003A000A783B08787E690E092878187EAE2F1E051
:1003B000108284EF91E0A0E0B0E081839283A38378
:1003C000B48385839683A783B08789E890E092877A
:1003D0008187EFE1F1E0108288EE93E0A0E0B0E0E9
:1003E00081839283A383B48385839683A783B08715
:1003F00089EA90E092878187E4E1F1E010828AE067
:1004000090E0A0E0B0E081839283A383B4838583EE
:100410009683A783B08789EC90E092878187C50196
:10042000B4010E94D3000E94E400E12CF12C39C0F9
:10043000F701EE0FFF1FEC0FFD1F01811281D801A4
:1004400015964D915D916D917C91189711968D91B6
:100450009D910D90BC91A02D481759076A077B0705
:1004600081F4D8011996ED91FC911A978C919927F6
:1004700087FD90950995F801808315821682178271
:100480001086F80185819681A781B085880D991D18
:10049000AA1DBB1D85839683A783B087FFEFEF1A44
:1004A000FF0A84E0E816F10418F280911301882312
:1004B000E1F310921301B9CFA1E21A2EAA1BBB1BC4
:1004C000FD010DC0AA1FBB1FEE1FFF1FA217B30720
:1004D000E407F50720F0A21BB30BE40BF50B661F36
:1004E000771F881F991F1A9469F7609570958095FA
:1004F00090959B01AC01BD01CF010895F894FFCF09
:0C0500000100000035012A011F01140158
:00000001FF
